{
  "contractName": "ConsentManagement",
  "abi": [
    {
      "anonymous": false,
      "inputs": [
        {
          "indexed": false,
          "internalType": "address",
          "name": "patientAddress",
          "type": "address"
        },
        {
          "indexed": false,
          "internalType": "address",
          "name": "providerAddress",
          "type": "address"
        }
      ],
      "name": "ConsentGiven",
      "type": "event"
    },
    {
      "anonymous": false,
      "inputs": [
        {
          "indexed": false,
          "internalType": "address",
          "name": "patientAddress",
          "type": "address"
        },
        {
          "indexed": false,
          "internalType": "address",
          "name": "providerAddress",
          "type": "address"
        }
      ],
      "name": "ConsentRevoked",
      "type": "event"
    },
    {
      "inputs": [
        {
          "internalType": "address",
          "name": "_providerAddress",
          "type": "address"
        }
      ],
      "name": "giveConsent",
      "outputs": [],
      "stateMutability": "nonpayable",
      "type": "function"
    },
    {
      "inputs": [
        {
          "internalType": "address",
          "name": "_providerAddress",
          "type": "address"
        }
      ],
      "name": "revokeConsent",
      "outputs": [],
      "stateMutability": "nonpayable",
      "type": "function"
    },
    {
      "inputs": [
        {
          "internalType": "address",
          "name": "_patientAddress",
          "type": "address"
        },
        {
          "internalType": "address",
          "name": "_providerAddress",
          "type": "address"
        }
      ],
      "name": "checkConsent",
      "outputs": [
        {
          "internalType": "bool",
          "name": "",
          "type": "bool"
        }
      ],
      "stateMutability": "view",
      "type": "function",
      "constant": true
    }
  ],
  "bytecode": "0x608060405234801561001057600080fd5b5061022d806100206000396000f3fe608060405234801561001057600080fd5b50600436106100415760003560e01c80631ab64e4b14610046578063799cb1c214610094578063d1a48627146100a9575b600080fd5b6100806100543660046101a2565b6001600160a01b0391821660009081526020818152604080832093909416825291909152205460ff1690565b604051901515815260200160405180910390f35b6100a76100a23660046101d5565b6100bc565b005b6100a76100b73660046101d5565b610126565b336000818152602081815260408083206001600160a01b03861680855290835292819020805460ff191660011790558051938452908301919091527f6f9fc0e2e04f63804b784301d64936328c6de2fc16baff3732b8486e910f2b3991015b60405180910390a150565b336000818152602081815260408083206001600160a01b03861680855290835292819020805460ff191690558051938452908301919091527febecee2d3f2ea272f73dd9d9ccc0bacd11280d61240332cbcd8a68173ae5cc2c910161011b565b80356001600160a01b038116811461019d57600080fd5b919050565b600080604083850312156101b557600080fd5b6101be83610186565b91506101cc60208401610186565b90509250929050565b6000602082840312156101e757600080fd5b6101f082610186565b939250505056fea2646970667358221220ade37026480aa864b51ca080db8a34ef7fba1f403177a362f6db861b244ba89b64736f6c63430008130033",
  "immutableReferences": {},
  "source": "// SPDX-License-Identifier: MIT\r\npragma solidity ^0.8.0;\r\n\r\ncontract ConsentManagement {\r\n    mapping(address => mapping(address => bool)) private consents;\r\n\r\n    event ConsentGiven(address patientAddress, address providerAddress);\r\n    event ConsentRevoked(address patientAddress, address providerAddress);\r\n\r\n    function giveConsent(address _providerAddress) public {\r\n        consents[msg.sender][_providerAddress] = true;\r\n        emit ConsentGiven(msg.sender, _providerAddress);\r\n    }\r\n\r\n    function revokeConsent(address _providerAddress) public {\r\n        consents[msg.sender][_providerAddress] = false;\r\n        emit ConsentRevoked(msg.sender, _providerAddress);\r\n    }\r\n\r\n    function checkConsent(address _patientAddress, address _providerAddress) public view returns (bool) {\r\n        return consents[_patientAddress][_providerAddress];\r\n    }\r\n}\r\n",
  "sourcePath": "C:\\Users\\user\\python\\health_data_exchange\\contracts\\contracts\\ConsentManagement.sol",
  "compiler": {
    "name": "solc",
    "version": "0.8.19+commit.7dd6d404.Emscripten.clang"
  },
  "schemaVersion": "3.4.16",
  "updatedAt": "2024-07-08T12:32:28.249Z",
  "networkType": "ethereum",
  "devdoc": {
    "kind": "dev",
    "methods": {},
    "version": 1
  },
  "userdoc": {
    "kind": "user",
    "methods": {},
    "version": 1
  }
}