{
  "contractName": "HealthRecordStorage",
  "abi": [
    {
      "anonymous": false,
      "inputs": [
        {
          "indexed": false,
          "internalType": "address",
          "name": "patientAddress",
          "type": "address"
        },
        {
          "indexed": false,
          "internalType": "string",
          "name": "ipfsHash",
          "type": "string"
        }
      ],
      "name": "HealthRecordAdded",
      "type": "event"
    },
    {
      "inputs": [
        {
          "internalType": "string",
          "name": "_ipfsHash",
          "type": "string"
        }
      ],
      "name": "addHealthRecord",
      "outputs": [],
      "stateMutability": "nonpayable",
      "type": "function"
    },
    {
      "inputs": [
        {
          "internalType": "address",
          "name": "_patientAddress",
          "type": "address"
        }
      ],
      "name": "getHealthRecords",
      "outputs": [
        {
          "components": [
            {
              "internalType": "string",
              "name": "ipfsHash",
              "type": "string"
            },
            {
              "internalType": "uint256",
              "name": "timestamp",
              "type": "uint256"
            }
          ],
          "internalType": "struct HealthRecordStorage.HealthRecord[]",
          "name": "",
          "type": "tuple[]"
        }
      ],
      "stateMutability": "view",
      "type": "function",
      "constant": true
    }
  ],
  "bytecode": "0x608060405234801561001057600080fd5b5061057a806100206000396000f3fe608060405234801561001057600080fd5b50600436106100365760003560e01c80636e591f8d1461003b5780637827c01a14610050575b600080fd5b61004e610049366004610232565b610079565b005b61006361005e3660046102e3565b61010d565b6040516100709190610359565b60405180910390f35b604080518082018252828152426020808301919091523360009081528082529283208054600181018255908452922081519192839260029091029091019081906100c39082610458565b506020820151816001015550507f310f835f2f1bc58339330ac1baf2faf59ecda3bfcff493c97fe24e574146a1ee3383604051610101929190610518565b60405180910390a15050565b6001600160a01b038116600090815260208181526040808320805482518185028101850190935280835260609492939192909184015b828210156102115783829060005260206000209060020201604051806040016040529081600082018054610176906103cf565b80601f01602080910402602001604051908101604052809291908181526020018280546101a2906103cf565b80156101ef5780601f106101c4576101008083540402835291602001916101ef565b820191906000526020600020905b8154815290600101906020018083116101d257829003601f168201915b5050505050815260200160018201548152505081526020019060010190610143565b505050509050919050565b634e487b7160e01b600052604160045260246000fd5b60006020828403121561024457600080fd5b813567ffffffffffffffff8082111561025c57600080fd5b818401915084601f83011261027057600080fd5b8135818111156102825761028261021c565b604051601f8201601f19908116603f011681019083821181831017156102aa576102aa61021c565b816040528281528760208487010111156102c357600080fd5b826020860160208301376000928101602001929092525095945050505050565b6000602082840312156102f557600080fd5b81356001600160a01b038116811461030c57600080fd5b9392505050565b6000815180845260005b818110156103395760208185018101518683018201520161031d565b506000602082860101526020601f19601f83011685010191505092915050565b60006020808301818452808551808352604092508286019150828160051b87010184880160005b838110156103c157888303603f19018552815180518785526103a488860182610313565b918901519489019490945294870194925090860190600101610380565b509098975050505050505050565b600181811c908216806103e357607f821691505b60208210810361040357634e487b7160e01b600052602260045260246000fd5b50919050565b601f82111561045357600081815260208120601f850160051c810160208610156104305750805b601f850160051c820191505b8181101561044f5782815560010161043c565b5050505b505050565b815167ffffffffffffffff8111156104725761047261021c565b6104868161048084546103cf565b84610409565b602080601f8311600181146104bb57600084156104a35750858301515b600019600386901b1c1916600185901b17855561044f565b600085815260208120601f198616915b828110156104ea578886015182559484019460019091019084016104cb565b50858210156105085787850151600019600388901b60f8161c191681555b5050505050600190811b01905550565b6001600160a01b038316815260406020820181905260009061053c90830184610313565b94935050505056fea26469706673582212204f651b92e055b64c4d2022d969e2c7d289b012c1d8686a126c76210515390e3c64736f6c63430008130033",
  "immutableReferences": {},
  "source": "// SPDX-License-Identifier: MIT\r\npragma solidity ^0.8.0;\r\n\r\ncontract HealthRecordStorage {\r\n    struct HealthRecord {\r\n        string ipfsHash;\r\n        uint256 timestamp;\r\n    }\r\n\r\n    mapping(address => HealthRecord[]) private patientRecords;\r\n\r\n    event HealthRecordAdded(address patientAddress, string ipfsHash);\r\n\r\n    function addHealthRecord(string memory _ipfsHash) public {\r\n        HealthRecord memory newRecord = HealthRecord({\r\n            ipfsHash: _ipfsHash,\r\n            timestamp: block.timestamp\r\n        });\r\n\r\n        patientRecords[msg.sender].push(newRecord);\r\n\r\n        emit HealthRecordAdded(msg.sender, _ipfsHash);\r\n    }\r\n\r\n    function getHealthRecords(address _patientAddress) public view returns (HealthRecord[] memory) {\r\n        return patientRecords[_patientAddress];\r\n    }\r\n}\r\n",
  "sourcePath": "C:\\Users\\user\\python\\health_data_exchange\\contracts\\contracts\\HealthRecordStorage.sol",
  "compiler": {
    "name": "solc",
    "version": "0.8.19+commit.7dd6d404.Emscripten.clang"
  },
  "schemaVersion": "3.4.16",
  "updatedAt": "2024-07-08T12:32:28.244Z",
  "networkType": "ethereum",
  "devdoc": {
    "kind": "dev",
    "methods": {},
    "version": 1
  },
  "userdoc": {
    "kind": "user",
    "methods": {},
    "version": 1
  }
}