{
  "contractName": "PatientRegistry",
  "abi": [
    {
      "inputs": [],
      "stateMutability": "nonpayable",
      "type": "constructor"
    },
    {
      "anonymous": false,
      "inputs": [
        {
          "indexed": false,
          "internalType": "address",
          "name": "sender",
          "type": "address"
        }
      ],
      "name": "ConstructorCalled",
      "type": "event"
    },
    {
      "inputs": [],
      "name": "testFunction",
      "outputs": [
        {
          "internalType": "bool",
          "name": "",
          "type": "bool"
        }
      ],
      "stateMutability": "pure",
      "type": "function",
      "constant": true
    }
  ],
  "bytecode": "0x6080604052348015600f57600080fd5b506040513381527fbad9c536aeab214bd62c78cc39018cff9fe81815d763bd829e24a3b171af6a839060200160405180910390a16077806100516000396000f3fe6080604052348015600f57600080fd5b506004361060285760003560e01c8063e16b4a9b14602d575b600080fd5b604080516001815290519081900360200190f3fea26469706673582212200b1c8ff82a02be52e1811d12d831e0b374387f6a616f8d0433963d9852facfb564736f6c63430008130033",
  "immutableReferences": {},
  "source": "// SPDX-License-Identifier: MIT\r\npragma solidity ^0.8.0;\r\n\r\ncontract PatientRegistry {\r\n    event ConstructorCalled(address sender);\r\n\r\n    constructor() {\r\n        emit ConstructorCalled(msg.sender);\r\n    }\r\n\r\n    function testFunction() public pure returns (bool) {\r\n        return true;\r\n    }\r\n}\r\n",
  "sourcePath": "C:\\Users\\user\\python\\health_data_exchange\\contracts\\contracts\\PatientRegistry.sol",
  "compiler": {
    "name": "solc",
    "version": "0.8.19+commit.7dd6d404.Emscripten.clang"
  },
  "schemaVersion": "3.4.16",
  "updatedAt": "2024-07-08T12:32:28.238Z",
  "networkType": "ethereum",
  "devdoc": {
    "kind": "dev",
    "methods": {},
    "version": 1
  },
  "userdoc": {
    "kind": "user",
    "methods": {},
    "version": 1
  }
}